:020000040800F2
:10000000100400209D0100083B0300083303000892
:1000100037030008E5010008FD06000800000000A5
:10002000000000000000000000000000F9030008CC
:100030004F02000800000000B5030008E9040008B2
:10004000B7010008B7010008B7010008B7010008B0
:10005000B7010008B7010008B7010008B7010008A0
:10006000B7010008B7010008B7010008B701000890
:10007000B7010008E9010008B7010008B70100084E
:10008000B7010008B7010008B7010008B701000870
:10009000B7010008B7010008B7010008B701000860
:1000A000B7010008B7010008B7010008B701000850
:1000B000B7010008B701000855050008B70100089E
:1000C000B7010008B7010008B7010008B701000830
:1000D000B7010008B7010008B7010008B701000820
:1000E000B7010008B7010008B7010008B701000810
:1000F000B7010008B7010008B7010008B701000800
:10010000B7010008B701000869050008B701000839
:10011000B7010008B7010008B7010008B7010008DF
:10012000B7010008B7010008B7010008B7010008CF
:10013000B7010008B7010008B7010008B7010008BF
:10014000B7010008B7010008B7010008B7010008AF
:10015000B7010008B7010008B7010008B70100089F
:10016000B7010008B7010008B7010008B70100088F
:10017000B7010008B7010008B7010008B70100087F
:10018000B7010008B7010008DFF80CD000F018F83C
:100190000048004745070008100400200648804733
:1001A00006480047FEE7FEE7FEE7FEE7FEE7FEE75C
:1001B000FEE7FEE7FEE7FEE7ED0400088901000820
:1001C000064C074D06E0E06840F0010394E80700A4
:1001D00098471034AC42F6D3FFF7DAFF480900081D
:1001E0006809000800BFFEE710B50449044800F0A4
:1001F00009F80121024800F01FF810BD008020100E
:10020000406002400246094B9A4201D2084801E090
:100210000648103801F000531BB1064B0B40C36079
:1002200002E0044B0B408360704700001064024002
:10023000006002407D0F7D0F21B1026842F0010293
:10024000026003E0026822F001020260704770471A
:10025000F0B50A4600210023002400BF3DE001253F
:1002600005FA01F3156805EA03049C4234D10568D8
:100270004F000326BE40B543056015794E00B540DA
:100280000668354305601579012D02D01579022DD8
:1002900016D185684F000326BE40B5438560557969
:1002A0004E00B540866835438560456801268E401E
:1002B000B5434560456896798E40B6B23543456092
:1002C000C5684F000326BE40B543C560D5794E00D2
:1002D000B540C6683543C560491C1029BFD3F0BD81
:1002E000F0B5002300244D07ED0E02FA05F3CE1001
:1002F00000F1200555F826504E07F70E0F26BE4098
:10030000B543CF1000F1200646F82750CE1000F17B
:10031000200555F8265045EA0304CE1000F12005CB
:1003200045F82640F0BD4183704742694A4042612A
:10033000704700BFFEE700BFFEE7704770B50021C1
:1003400000230F22C4781CB3174C246804F4E06423
:10035000C4F5E064C4F30721C1F10404E3B20A4127
:1003600044789C40E1B28478144021430C07210E6C
:100370000E4C05786155047804F01F050124AC404B
:1003800005786D11AD0005F1E025C5F8004109E0E3
:10039000047804F01F050124AC40054D0678761161
:1003A00045F8264070BD00000CED00E000E400E0E0
:1003B00080E100E07047000029B1064A126802435C
:1003C000044B1A6004E0034A12688243014B1A602E
:1003D000704700003038024029B1064A12680243D3
:1003E000044B1A6004E0034A12688243014B1A600E
:1003F0007047000040380240704700000CB50020F4
:10040000019000903448006840F480303249086020
:1004100000BF3148006800F4003000900198401C93
:100420000190009818B90198B0F5A04FF1D12A4871
:10043000006800F4003010B10120009001E00020BD
:1004400000900098012846D123484030006840F0D1
:1004500080502149403108602048006840F4404005
:100460001E4908601C48083000681B4908310860B4
:100470000846006840F4004008600846006840F400
:10048000A05008601648091F0860081F006840F067
:100490008070091F086000BF0F48006800F00070FE
:1004A0000028F9D040F205700E4908600A4808306B
:1004B000006820F003000849083108600846006819
:1004C00040F00200086000BF03480830006800F0F8
:1004D0000C000828F8D10CBD003802400070004024
:1004E00008544007003C02407047000010B5154812
:1004F000006840F47000134908601348006840F039
:1005000001001149086000200F49083108600E48B9
:1005100000680E4908400C4908600D48091D086034
:10052000081F006820F48020091F08600020064989
:100530000C310860FFF762FF4FF00060014980391D
:10054000086010BD88ED00E000380240FFFFF6FEB5
:100550001030002410B50121024800F011F800F01D
:1005600019F910BD0008004010B50121034800F042
:1005700007F84FF4805000F003F910BD000C004064
:10058000CA430282704721B1028842F00102028010
:1005900004E002884FF6FE731A4002807047F0B5FF
:1005A0000C4615461E460021002200230189028BBD
:1005B000038C4FF6F877394021434FF6FC473A4019
:1005C00040F201173A434FF6DD773B404FF6FF7795
:1005D00007EA06172F433B43018102830384F0BDE2
:1005E0000146486A70471AB183890B43838102E050
:1005F00083898B438381704770B5002400220023D8
:10060000058C4FF6FE7635400584028C8388048B7A
:100610004FF68F752C40B51E2C400D882C43751E4F
:100620002A408D892A434D882A43104DA84202D082
:100630000F4DA84213D14FF6F7752A40CD892A43B2
:100640004FF6FB752A408D882A434FF6FF652B40F5
:100650004FF6FF552B400D8A2B434D8A2B43838049
:1006600004838D684563028470BD00000000014072
:10067000000401404162704700220288184B9842F2
:100680000ED0184B98420BD0B0F1804F08D0164BCB
:10069000984205D0154B984202D0154B984204D190
:1006A0004FF68F731A404B881A43124B984207D06B
:1006B000114B984204D04FF6FF431A400B891A435E
:1006C00002804B68C3620B880385054B984202D0B9
:1006D000044B984201D18B7A0386012383827047B1
:1006E00000000140000401400004004000080040F8
:1006F000000C0040001000400014004000BFFEE766
:1007000002E008C8121F08C1002AFAD170477047DA
:10071000002001E001C1121F002AFBD17047000038
:1007200001480068704700000400002010B500F088
:100730001FF80146FFF7F4FF4FF4803202FB001070
:1007400010BD000000F0B0F800F054F800F038F8E8
:100750004FF400610448FFF7E6FD03E0FFF7E6FF12
:1007600002490860FAE70000000C02400000002087
:1007700010B50248FFF734FF10BD0000000800402C
:1007800010B5044621460248FFF7CFFD10BD00001A
:10079000000C024010B50848FFF722FF142805D8C6
:1007A00006480068401C0549086004E003480068EA
:1007B000401E0249086010BD0008004004000020EF
:1007C0001CB501210820FFF7F7FD01208DF804007A
:1007D0008DF80600C002009001208DF8070002206D
:1007E0008DF8050069460248FFF732FD1CBD000088
:1007F000000C024000B587B001210820FFF7DCFDA6
:1008000002208DF818004FF44050059001208DF81B
:100810001B0003208DF8190005A92148FFF718FDDA
:1008200002220C211E48FFF75BFD02220D211C480D
:10083000FFF756FD01210420FFF7CEFD0020ADF8A3
:100840001000ADF80A004FF6FF7003900020ADF8DD
:10085000080002A91348FFF70FFF00211148FFF716
:1008600009FF012211460F48FFF7BDFE00231A467B
:1008700001210C48FFF793FE1E208DF80400012093
:100880008DF805008DF806008DF8070001A8FFF728
:1008900055FD01210348FFF776FE07B000BD0000BB
:1008A000000C02400008004000B58BB0012104207C
:1008B000FFF782FD02208DF8280000208DF82A0025
:1008C0004020099000208DF82B008DF8290009A9FF
:1008D0001B48FFF7BDFC022206211948FFF700FD67
:1008E00001210220FFF778FD0020ADF82000ADF8CF
:1008F0001A0041F2670007900020ADF8180006A921
:100900001048FFF7B9FE0020ADF814006020ADF8E4
:1009100004004FF48070ADF814000020ADF8100012
:100920000120ADF8060040F67360039001A9054868
:10093000FFF762FE01210348FFF725FE0BB000BD63
:100940000008024000040040680900080000002080
:100950000C00000000070008740900080C000020CB
:10096000040400001007000800000000FFFFFFFF64
:040970000000000083
:040000050800019D51
:00000001FF
