:020000040800F2
:10000000800400209D01000831090008290900082A
:100010002D090008190700080D0F00080000000056
:10002000000000000000000000000000D90A0008E5
:100030004908000800000000AD090008C90B0008CD
:10004000B7010008B7010008B7010008B7010008B0
:10005000B7010008B7010008B7010008B7010008A0
:10006000B7010008B7010008B7010008B701000890
:10007000B70100081D070008B7010008B701000814
:10008000B7010008B7010008B7010008B701000870
:10009000B7010008B7010008B7010008B701000860
:1000A000B7010008B7010008B7010008B701000850
:1000B000B7010008B7010008350C0008B7010008B7
:1000C000B7010008B7010008B7010008B701000830
:1000D000B7010008B7010008B7010008B701000820
:1000E000B7010008B7010008B7010008B701000810
:1000F000B7010008B7010008B7010008B701000800
:10010000B7010008B7010008490C0008B701000852
:10011000B7010008B7010008B7010008B7010008DF
:10012000B7010008B7010008B7010008B7010008CF
:10013000B7010008B7010008B7010008B7010008BF
:10014000B7010008B7010008B7010008B7010008AF
:10015000B7010008B7010008B7010008B70100089F
:10016000B7010008B7010008B7010008B70100088F
:10017000B7010008B7010008B7010008B70100087F
:10018000B7010008B7010008DFF80CD000F0A2FAB0
:1001900000480047291200088004002006488047D4
:1001A00006480047FEE7FEE7FEE7FEE7FEE7FEE75C
:1001B000FEE7FEE7FEE7FEE7CD0B00088901000839
:1001C000421C10F8011B0029FBD1801A70472DE951
:1001D000FE4F804681EA0300C00F0C46009021F0DC
:1001E000004123F00045B8EB0200A94105D240468A
:1001F000214690461C460B46024623F00040104321
:1002000047D0270DC7F30A00C3F30A510290401AE2
:10021000019040286BDAC3F3130040F4801B009870
:10022000924620B10023D2EB030A63EB0B0B01983B
:100230005946C0F14002504600F096F906460D4678
:1002400050465946019A00F09EF910EB08006141B2
:10025000002487EA115284EAE7731A4340D0009AD7
:1002600062B3019A012A4FEA075215DC001B61EBC9
:1002700002014FF0004202EA0752CDE90042001CA1
:1002800041F5801132462B4600F0D5F903B0BDE8A8
:10029000F08F40462146F9E7001B61EB0201001C8C
:1002A00041F5801300185B412018A2F5001747EBB9
:1002B000030140EAD570B6196D4111E06D084FEAAF
:1002C000360645EAC0754FEA0752001B61EB020192
:1002D000001C41F5801149084FEA300000195141D6
:1002E00032462B4603B0BDE8F04F00F095B90098B8
:1002F000012240000023D0EB020263EBE073009880
:1003000021464FEAE074B8EB000061EB0401E9E735
:1003100083F000435BE781F0004158E72DE9FE4F91
:1003200081EA030404F0004421F0004100944FF0FE
:10033000000B23F0004350EA01045ED052EA0304AC
:100340005BD0C3F30A54C1F30A552C44A4F2F3342E
:100350000194A0FB0254C1F3130141F48011C3F3D3
:10036000130343F4801301FB024400FB034E840A91
:10037000970A44EA815447EA8357A4FB0768029529
:100380008D0A05FB07854FEA932C04FB0C542705C7
:10039000029D4FEA065847EA1637B5EB08056EEBA3
:1003A000070C870E920E47EA811742EA8312A7FBD9
:1003B0000201B6EB0B0164EB00042B0D43EA0C3396
:1003C0005E1844EB1C50DA465146E7FB0201C5F3C8
:1003D00013044FEA0B3343EA14534FEA0432019CEF
:1003E00043EA0603A4F10C040294009CCDE900B496
:1003F00000F021F903B0BDE8F08F00200146F9E7D5
:100400002DE9F04D81EA030404F0004B21F0004592
:1004100014464FF0000A23F0004150EA050220D0B4
:1004200054EA01021DD0C5F30A570246C5F313036F
:10043000C1F31300C1F30A5640F4801543F480134E
:10044000A7EB0608101BD64608F2FD3873EB050033
:1004500002D308F1010801E092185B41B8F1000FE6
:1004600003DA00200146BDE8F08D00204FF4801132
:10047000064684460EE0171B73EB050705D3121BD7
:1004800063EB050306434CEA010C49084FEA3000D0
:1004900092185B4150EA0107EDD152EA030012D0F5
:1004A00082EA040083EA0501084305D0101BAB4132
:1004B00006D20122002306E000224FF0004302E0B2
:1004C0006FF0010253101AEB06004CEB085110EBD1
:1004D0000A0041EB0B01BDE8F04D00F09DB800F0C3
:1004E000004230F000400AD0C10D01F56071C0F348
:1004F000160042EA0151C20840071143704700202C
:100500000146704701F0004330B421F0004150EA49
:10051000010206D00A0DA2F56072C1F31301002A90
:1005200002DC30BC00207047440F44EAC104C10023
:10053000E01830BC00EBC25000F037B830B50B46C5
:10054000014600202022012409E021FA02F59D4203
:1005500005D303FA02F5491B04FA02F52844151ED7
:10056000A2F10102F1DC30BD202A04DB203A00FABE
:1005700002F1002070479140C2F1200320FA03F3FA
:10058000194390407047202A06DBCB17203A41FAE6
:1005900002F043EAE07306E041FA02F3D040C2F110
:1005A000200291400843194670470029A8BF7047B0
:1005B000401C490008BF20F00100704710B4B0FA99
:1005C00080FC00FA0CF050EA010404BF10BC704734
:1005D00049B1CCF1200421FA04F411FA0CF118BF4E
:1005E000012121430843A3EB0C01CB1D4FEA00611D
:1005F0004FEA102042BF002010BC704700EBC350F0
:1006000010440029A4BF10BC7047401C490008BF1B
:1006100020F0010010BC704710B5141E73F10004E7
:1006200008DA401C41F1000192185B411A4301D1E4
:1006300020F0010010BD2DE9F04D92469B4611B10E
:10064000B1FA81F202E0B0FA80F220329046FFF770
:100650008BFF04460F4640EA0A0041EA0B0153466D
:100660005A46084313D0114653EA010019D0C8F185
:100670004002504600F040F805460E4650465946A6
:100680004246FFF771FF084305D0012004E02046F1
:100690003946BDE8F08D0020054346EAE0762C435C
:1006A00037430A986305E40AA0EB08000022FD0A1C
:1006B00044EA47540A3002D500200146E9E7010523
:1006C00010196941DDE9084500196941BDE8F04D9F
:1006D000A2E70000064C074D06E0E06840F0010389
:1006E00094E8070098471034AC42F6D3FFF750FD6A
:1006F000B0170008D0170008202A04DB203A21FA9E
:1007000002F00021704721FA02F3D040C2F120022A
:10071000914008431946704700BFFEE710B50449F1
:10072000044800F023F80121024800F039F810BD18
:1007300000802010406002400246094B9A4201D2DC
:10074000084801E00648103801F000531BB1064B81
:100750000B40C36002E0044B0B4083607047000015
:1007600010640240006002407D0F7D0F0246094B7D
:100770009A4201D2084801E00648103801F00053BF
:100780001BB1064B0B40C36002E0044B0B4083607F
:100790007047000010640240006002407D0F7D0F32
:1007A00021B1026842F00102026003E0026822F017
:1007B00001020260704710B501F080034BB122B115
:1007C000436943F08003436103E0436923F08003FE
:1007D000436180290BD02AB1036801F01E04234332
:1007E000036004E0036801F01E04A343036010BD2E
:1007F00010B500220268134B1A40CC680B682343E3
:100800004C6923438C692343CC6923430C6A2343FB
:100810004C6A23438C6A23434C6B23438C6B2343E6
:100820001A430260426922F00702D1E90B342343E4
:100830001A4342610B6943604B6883608B68C360F5
:1008400010BD00003F801CF07047F0B50A46002143
:100850000023002400BF3DE0012505FA01F31568DF
:1008600005EA03049C4234D105684F000326BE40CC
:10087000B543056015794E00B540066835430560FF
:100880001579012D02D01579022D16D185684F00FA
:100890000326BE40B543856055794E00B540866855
:1008A00035438560456801268E40B54345604568FF
:1008B00096798E40B6B235434560C5684F00032631
:1008C000BE40B543C560D5794E00B540C6683543D6
:1008D000C560491C1029BFD3F0BDF0B5002300242A
:1008E0004D07ED0E02FA05F3CE1000F1200555F884
:1008F00026504E07F70E0F26BE40B543CF1000F12D
:10090000200646F82750CE1000F1200555F8265055
:1009100045EA0304CE1000F1200545F82640F0BD5D
:10092000418370470183704700BFFEE700BFFEE7C9
:100930007047000070B5002100230F22C4781CB35B
:10094000174C246804F4E064C4F5E064C4F30721A0
:10095000C1F10404E3B20A4144789C40E1B28478D6
:10096000144021430C07210E0E4C05786155047884
:1009700004F01F050124AC4005786D11AD0005F1B0
:10098000E025C5F8004109E0047804F01F050124C2
:10099000AC40054D0678761145F8264070BD000044
:1009A0000CED00E000E400E080E100E070470000B2
:1009B00029B1064A12680243044B1A6004E0034A54
:1009C00012688243014B1A607047000030380240C1
:1009D00029B1064A12680243044B1A6004E0034A34
:1009E00012688243014B1A60704700004038024091
:1009F000F0B5002100220024022500260223324FF8
:100A00003F6807F00C0121B1042905D0082937D12E
:100A100005E02E4F076036E02D4F076033E02A4F88
:100A20003F1F3F68C7F38056274F3F1F3F6807F0BF
:100A30003F036EB1264FB7FBF3F7DFF88CC0ACF184
:100A4000040CDCF800C0CCF3881C07FB0CF40CE0B1
:100A50001E4FB7FBF3F7DFF870C0ACF1040CDCF805
:100A600000C0CCF3881C07FB0CF4174F3F1F3F68F6
:100A7000C7F301477F1C7D00B4FBF5F7076002E078
:100A8000124F076000BF00BF0F4F3F6807F0F00133
:100A90000909104F7A5C0768D74047600A4F3F68E2
:100AA00007F4E051890A0B4F7A5C4768D7408760AA
:100AB000054F3F6807F46041490B064F7A5C476871
:100AC000D740C760F0BD0000083802400024F400A1
:100AD00000127A0004000020704700000CB50020CE
:100AE000019000903448006840F48030324908603A
:100AF00000BF3148006800F4003000900198401CAD
:100B00000190009818B90198B0F5A04FF1D12A488A
:100B1000006800F4003010B10120009001E00020D6
:100B200000900098012846D123484030006840F0EA
:100B300080502149403108602048006840F440401E
:100B40001E4908601C48083000681B4908310860CD
:100B50000846006840F4004008600846006840F419
:100B6000A05008601648091F0860081F006840F080
:100B70008070091F086000BF0F48006800F0007017
:100B80000028F9D040F205700E4908600A48083084
:100B9000006820F003000849083108600846006832
:100BA00040F00200086000BF03480830006800F011
:100BB0000C000828F8D10CBD00380240007000403D
:100BC00008544007003C02407047000010B515482B
:100BD000006840F47000134908601348006840F052
:100BE00001001149086000200F49083108600E48D3
:100BF00000680E4908400C4908600D48091D08604E
:100C0000081F006820F48020091F086000200649A2
:100C10000C310860FFF762FF4FF000600149803936
:100C2000086010BD88ED00E000380240FFFFF6FECE
:100C30001030002410B50121024800F029F800F01E
:100C400047FB10BD0008004010B52DED028B0121BF
:100C50000D4800F01DF800F0DBFA00EE100AB8EEC7
:100C6000C00AB0EE408A00F0C7FAF0EE408AF0EE1B
:100C7000480A00F021FA054880ED000A012000F042
:100C8000BFFCBDEC028B10BD000C00401400002026
:100C9000CA430282704721B1028842F001020280F9
:100CA00004E002884FF6FE731A4002807047F0B5E8
:100CB0000C4615461E460021002200230189028BA6
:100CC000038C4FF6F877394021434FF6FC473A4002
:100CD00040F201173A434FF6DD773B404FF6FF777E
:100CE00007EA06172F433B43018102830384F0BDCB
:100CF0000146486A70471AB183890B43838102E039
:100D000083898B438381704770B5002400220023C0
:100D1000058C4FF6FE7635400584028C8388048B63
:100D20004FF68F752C40B51E2C400D882C43751E38
:100D30002A408D892A434D882A43104DA84202D06B
:100D40000F4DA84213D14FF6F7752A40CD892A439B
:100D50004FF6FB752A408D882A434FF6FF652B40DE
:100D60004FF6FF552B400D8A2B434D8A2B43838032
:100D700004838D684563028470BD0000000001405B
:100D8000000401404162704700220288184B9842DB
:100D90000ED0184B98420BD0B0F1804F08D0164BB4
:100DA000984205D0154B984202D0154B984204D179
:100DB0004FF68F731A404B881A43124B984207D054
:100DC000114B984204D04FF6FF431A400B891A4347
:100DD00002804B68C3620B880385054B984202D0A2
:100DE000044B984201D18B7A03860123838270479A
:100DF00000000140000401400004004000080040E1
:100E0000000C0040001000400014004021B1828915
:100E100042F40052828104E082894DF6FF731A4049
:100E2000828170471AB1838A0B43838202E0838AEE
:100E30008B438382704700002DE9FF4705460E462D
:100E40000024A14600BFA046B08900B100BF2C8A93
:100E500024F44054F08804432C82AC8941F20C60A5
:100E60008443B08831890843718908430443AC81C5
:100E7000AC8A24F44074B0890443AC826846FFF71E
:100E8000B7FD2048854202D01F48854202D1DDF8D7
:100E90000C9001E0DDF80890A88900F4004040B112
:100EA00009EBC90000EB091031684900B0FBF1F70C
:100EB00007E009EBC90000EB091031688900B0FBBD
:100EC000F1F76420B7FBF0F004012009642101FB75
:100ED0001078A88900F4004040B1322000EBC8002F
:100EE000B0FBF1F000F00700044308E0322000EB13
:100EF00008106421B0FBF1F000F00F0004432C81D6
:100F0000BDE8FF87001001400014014000BFFEE76C
:100F10000FB4084B10B504A902AA039800F01CF8FE
:100F2000044602A9002000F0C1F8204610BC5DF87C
:100F300014FB0000AD10000802E008C8121F08C131
:100F4000002AFAD170477047002001E001C1121F4A
:100F5000002AFBD1704700002DE9FF4F89B09B4666
:100F60000446002506E025280BD05A460B999047E9
:100F7000641C6D1C20780028F5D10DB02846BDE812
:100F8000F08F0027B8460122474900E0074314F8D4
:100F9000013F203B02FA03F00842F7D120782E28C7
:100FA00019D114F8010F47F004072A280ED06FF06A
:100FB0002F022078A0F1300109290CD808EB880114
:100FC00002EB410100EB0108641CF2E70A98641C83
:100FD00050F8048B0A9020780028CED0642808D0DE
:100FE000692806D075281ED05A460B9990476D1C6B
:100FF00058E00A994FF00A0901C90A91002802DA5B
:1010000040422D2102E0390504D52B218DF8201016
:10101000012103E0F90704D02021F7E78A4608AE52
:101020000DE00021FAE70A994FF00A0901C90A9177
:10103000F7E74946FFF782FA303106F8011D00282C
:10104000F7D1ADEB060000F12009780701D44FF08D
:101050000108C84502DDA8EB090000E00020804639
:10106000002706E008A85A46C05D0B9990476D1C02
:101070007F1C5745F6DB04E030205A460B99904719
:101080006D1CB8F10001A8F10108F5DC05E016F8C7
:10109000010B5A460B9990476D1CB9F10001A9F15B
:1010A0000109F4DC641C65E7092801000A68531C87
:1010B0000B6010707047000010B52DED108BF0EE36
:1010C000408AB0EE609A9FED410AF0EE409A9FEDA3
:1010D0003F0A10EE104A38EEC90A3D4880ED000A7A
:1010E00090ED000A30EE290A10EE101A0846FFF7BC
:1010F000F6F941EC1E0B9FED370B53EC102BFFF76D
:101100000DF941EC1D0B9FED350B53EC102BFFF748
:1011100077F941EC1B0B2046FFF7E1F941EC1C0B82
:1011200053EC1B2BFFF753F841EC1A0BFFF7EAF9CE
:101130000FEE100A264890ED000A30EE690A10EE14
:10114000101A0846FFF7CBF941EC1B0B9FED210B62
:1011500053EC102BFFF754F941EC1A0BFFF7D2F9BF
:101160000FEE900A1F4890ED000A1948D0ED000AD2
:1011700020EE200A1C48D0ED000A00EE8F0A1B4822
:10118000D0ED000A00EEAF0AB0EE408A104890EDB4
:10119000000AF0EE409A9FED160AB4EEC08AF1EE16
:1011A00010FA03D29FED120AB0EE408A9FED110AA9
:1011B000B4EEC08AF1EE10FA03DD9FED0E0AB0EE38
:1011C000408AB0EE480ABDEC108B10BD0000000054
:1011D0003C0000209A9999999999B93F0000000024
:1011E00000000040300000203400002038000020C3
:1011F0000000C8C20000C842014890ED010A7047D3
:1012000058000020014800687047000018000020C6
:1012100010B500F023F80146FFF7F4FF4FF48032D9
:1012200002FB001010BD000000F01AF900F040F9B8
:1012300000F0BCF84FF4165000F0EAF900F05EF848
:1012400008E0FFF7E5FF0449086000F00FF808B177
:1012500000F06EF8F5E700000000002010B502482D
:10126000FFF746FD10BD000000080040014800786F
:10127000704700004000002010B51348007840B2CD
:1012800012490870002007E00F4A411C515C4AB225
:101290000E4B011D5A54401C1028F5DB0B48D0EDB5
:1012A000020AB0EE600A00F065F90848D0ED040AC1
:1012B000B0EE600A00F058F90448D0ED030AB0EE31
:1012C000600A00F04BF910BD4400002058000020D7
:1012D00010B50848FFF70CFD142805D8064800682B
:1012E000401C0549086004E003480068401E0249AC
:1012F000086010BD00080040180000201CB5012146
:101300000820FFF755FB01208DF804008DF806003A
:10131000C002009001208DF8070002208DF8050022
:1013200069460248FFF791FA1CBD0000000C02401C
:1013300010B52DED048BFFF76BFF00EE100AB8EE31
:10134000C00AF0EE408AFFF757FFB0EE409AF0EE89
:10135000680AFFF7B1FEB0EE408A00F017F9FFF718
:1013600057FF044622460DA10D48FFF7D1FD0D4958
:101370000D48FFF7E1F90A48FEF722FF0A497039E4
:10138000486701210848FFF70BFAFFF775FF0020B7
:1013900000F0DEF8BDEC048B10BD000025640A00EF
:1013A00020000020200000207060024000B587B0BF
:1013B00001210820FFF7FCFA02208DF818004FF4F5
:1013C0004050059001208DF81B0003208DF8190076
:1013D00005A92148FFF739FA02220C211E48FFF720
:1013E0007CFA02220D211C48FFF777FA0121042024
:1013F000FFF7EEFA0020ADF81000ADF80A004FF646
:10140000FF7003900020ADF8080002A91348FFF711
:10141000BBFC00211148FFF7B5FC012211460F4823
:10142000FFF769FC00231A4601210C48FFF73FFC37
:101430001E208DF8040001208DF805008DF80600AF
:101440008DF8070001A8FFF775FA01210348FFF79F
:1014500022FC07B000BD0000000C02400008004064
:101460000EB501210820FFF7B3FA0020ADF80800FF
:10147000ADF8020042F2D000019040F2E730ADF842
:10148000000069460948FFF77FFC00210748FFF785
:1014900079FC012211460548FFF72DFC00F07CF98C
:1014A00001210248FFF7F7FB0EBD0000000C0040D1
:1014B00000B58BB001210420FFF77AFA02208DF8E5
:1014C000280000208DF82A004020099000208DF887
:1014D0002B008DF8290009A91B48FFF7B6F9022255
:1014E00006211948FFF7F9F901210220FFF770FAE8
:1014F0000020ADF82000ADF81A0041F26700079017
:101500000020ADF8180006A91048FFF73DFC0020A8
:10151000ADF814006020ADF804004FF48070ADF811
:1015200014000020ADF810000120ADF8060040F6D0
:101530007360039001A90548FFF7E6FB012103480A
:10154000FFF7A9FB0BB000BD0008024000040040FB
:10155000014908707047000040000020014880EDFC
:10156000000A704738000020014880ED000A7047EB
:1015700034000020014880ED000A70473000002050
:1015800001490860704700003404004010B52DED9B
:10159000028BB0EE408AB5EEC08AF1EE10FA05DD9E
:1015A0004FF400611348FFF7BBF90FE0B5EEC08AB6
:1015B000F1EE10FA0AD24FF400610E48FFF7B2F9CB
:1015C0009FED0D0A38EE000AB0EE408A9FED0B0A3F
:1015D00028EE000ADFED080A80EE201ABCEEC10AF0
:1015E00010EE100A82B21046FFF7CAFFBDEC028B64
:1015F00010BD0000000C02400000C84200388345C6
:10160000024909780143014A1170704740000020E7
:1016100010B596B0044601210846FFF7C9F901212B
:10162000C804FFF7D5F901214805FFF7C1F90822E1
:1016300000215448FFF751F9082201215148FFF7D2
:101640004CF90120149002208DF8540000208DF8F0
:10165000560001208DF8570002208DF8550014A97E
:101660004848FFF7F2F8022014908DF8540014A9AE
:101670004448FFF7EAF810940020ADF84400ADF8B4
:101680004600ADF84800ADF84C000C20ADF84A001B
:1016900010A93D48FFF7D0FB01213B48FFF7B6FBFF
:1016A000012280213848FFF7BDFB4FF00060019018
:1016B0003548001D029035480390402004900620D4
:1016C0000590002006904FF480600790002008905D
:1016D00009900A904FF400300B9000200C900120EC
:1016E0000D9000200E900F9001A92948FFF780F877
:1016F00001212748FFF754F8012240212248FFF733
:1017000091FB4FF0006001901F48001D029021489E
:1017100003900020049011200590002006904FF4C3
:10172000806007900020089009904FF480700A9024
:1017300040020B9000200C9001200D9000200E9094
:101740000F9001A912483038FFF752F801211048D4
:101750003038FFF725F80D208DF8000000208DF8B7
:1017600001008DF8020001208DF803006846FFF7A4
:10177000E1F80122102106483038FFF71CF816B0B6
:1017800010BD000000000240004C0040200000207E
:10179000706002404400002008B532208DF800003F
:1017A00001208DF803006846FFF7C4F808BD00006B
:1017B000D01700080000002044000000380F000887
:1017C00014180008440000203C040000480F0008E2
:1017D00000000000000000000102030401020304F5
:1017E0000607080900000000FFFFFFFF00000000DF
:1017F0006102030405060000000000000000000074
:101800006F12833A0000000000000000000000009A
:0418100000000000D4
:040000050800019D51
:00000001FF
