:020000040800F2
:10000000900400209D010008150A00080D0A000850
:10001000110A0008FD070008C10F000800000000D9
:10002000000000000000000000000000BD0B000800
:100030002D09000800000000910A0008AD0C00081E
:10004000B7010008B7010008B7010008B7010008B0
:10005000B7010008B7010008B7010008B7010008A0
:10006000B7010008B7010008B7010008B701000890
:10007000B701000801080008B7010008B70100082F
:10008000B7010008B7010008B7010008B701000870
:10009000B7010008B7010008B7010008B701000860
:1000A000B7010008B7010008B7010008B701000850
:1000B000B7010008B7010008190D0008B7010008D2
:1000C000B7010008B7010008B7010008B701000830
:1000D000B7010008B7010008B7010008B701000820
:1000E000B7010008B7010008B7010008B701000810
:1000F000B7010008B7010008B7010008B701000800
:10010000B7010008B70100082D0D0008B70100086D
:10011000B7010008B7010008B7010008B7010008DF
:10012000B7010008B7010008B7010008B7010008CF
:10013000B7010008B7010008B7010008B7010008BF
:10014000B7010008B7010008B7010008B7010008AF
:10015000B7010008B7010008B7010008B70100089F
:10016000B7010008B7010008B7010008B70100088F
:10017000B7010008B7010008B7010008B70100087F
:10018000B7010008B7010008DFF80CD000F014FB3D
:1001900000480047511A0008900400200648804794
:1001A00006480047FEE7FEE7FEE7FEE7FEE7FEE75C
:1001B000FEE7FEE7FEE7FEE7B10C00088901000854
:1001C000421C10F8011B0029FBD1801A70472DE951
:1001D000FE4F804681EA0300C00F0C46009021F0DC
:1001E000004123F00045B8EB0200A94105D240468A
:1001F000214690461C460B46024623F00040104321
:1002000047D0270DC7F30A00C3F30A510290401AE2
:10021000019040286BDAC3F3130040F4801B009870
:10022000924620B10023D2EB030A63EB0B0B01983B
:100230005946C0F14002504600F0F1F906460D461D
:1002400050465946019A00F0F9F910EB0800614157
:10025000002487EA115284EAE7731A4340D0009AD7
:1002600062B3019A012A4FEA075215DC001B61EBC9
:1002700002014FF0004202EA0752CDE90042001CA1
:1002800041F5801132462B4600F030FA03B0BDE84C
:10029000F08F40462146F9E7001B61EB0201001C8C
:1002A00041F5801300185B412018A2F5001747EBB9
:1002B000030140EAD570B6196D4111E06D084FEAAF
:1002C000360645EAC0754FEA0752001B61EB020192
:1002D000001C41F5801149084FEA300000195141D6
:1002E00032462B4603B0BDE8F04F00F0F0B900985D
:1002F000012240000023D0EB020263EBE073009880
:1003000021464FEAE074B8EB000061EB0401E9E735
:1003100083F000435BE781F0004158E72DE9FE4F91
:1003200081EA030404F0004421F0004100944FF0FE
:10033000000B23F0004350EA01045ED052EA0304AC
:100340005BD0C3F30A54C1F30A552C44A4F2F3342E
:100350000194A0FB0254C1F3130141F48011C3F3D3
:10036000130343F4801301FB024400FB034E840A91
:10037000970A44EA815447EA8357A4FB0768029529
:100380008D0A05FB07854FEA932C04FB0C542705C7
:10039000029D4FEA065847EA1637B5EB08056EEBA3
:1003A000070C870E920E47EA811742EA8312A7FBD9
:1003B0000201B6EB0B0164EB00042B0D43EA0C3396
:1003C0005E1844EB1C50DA465146E7FB0201C5F3C8
:1003D00013044FEA0B3343EA14534FEA0432019CEF
:1003E00043EA0603A4F10C040294009CCDE900B496
:1003F00000F07CF903B0BDE8F08F00200146F9E77A
:100400002DE9F04D81EA030404F0004B21F0004592
:1004100014464FF0000A23F0004150EA050220D0B4
:1004200054EA01021DD0C5F30A570246C5F313036F
:10043000C1F31300C1F30A5640F4801543F480134E
:10044000A7EB0608101BD64608F2FD3873EB050033
:1004500002D308F1010801E092185B41B8F1000FE6
:1004600003DA00200146BDE8F08D00204FF4801132
:10047000064684460EE0171B73EB050705D3121BD7
:1004800063EB050306434CEA010C49084FEA3000D0
:1004900092185B4150EA0107EDD152EA030012D0F5
:1004A00082EA040083EA0501084305D0101BAB4132
:1004B00006D20122002306E000224FF0004302E0B2
:1004C0006FF0010253101AEB06004CEB085110EBD1
:1004D0000A0041EB0B01BDE8F04D00F0F8B80EB595
:1004E000C10F80EAE0700844CA07002140F233439C
:1004F0008DE80E000A460B4600F0F8F803B000BD88
:1005000000F0004230F000400AD0C10D01F56071EA
:10051000C0F3160042EA0151C20840071143704778
:10052000002001467047000030B5041E71F1000440
:1005300004DB4FF00044404264EB0101141E73F1F0
:10054000000405DB1C464FF00043524263EB0403FA
:10055000994208BF904230BD01F0004330B421F011
:10056000004150EA010206D00A0DA2F56072C1F303
:100570001301002A02DC30BC00207047440F44EA1B
:10058000C104C100E01830BC00EBC25000F068B8F4
:1005900030B50B46014600202022012409E021FA53
:1005A00002F59D4205D303FA02F5491B04FA02F550
:1005B0002844151EA2F10102F1DC30BD2DE9F05FE7
:1005C0000546002092469B468846064681464024C2
:1005D0001BE0284641464746224600F0FFF85346B6
:1005E0005A46C01A914110D311461846224600F0CF
:1005F00016F82D1A67EB01084F462246012000210C
:1006000000F00DF817EB00094E41201EA4F1010483
:10061000DFDC484631462A464346BDE8F09F202AA3
:1006200004DB203A00FA02F1002070479140C2F149
:10063000200320FA03F3194390407047202A06DB79
:10064000CB17203A41FA02F043EAE07306E041FAA0
:1006500002F3D040C2F1200291400843194670478E
:100660000029A8BF7047401C490008BF20F00100C6
:10067000704710B4B0FA80FC00FA0CF050EA0104A4
:1006800004BF10BC704749B1CCF1200421FA04F436
:1006900011FA0CF118BF012121430843A3EB0C010F
:1006A000CB1D4FEA00614FEA102042BF002010BC72
:1006B000704700EBC35010440029A4BF10BC704722
:1006C000401C490008BF20F0010010BC704710B565
:1006D000141E73F1000408DA401C41F10001921865
:1006E0005B411A4301D120F0010010BD2DE9F04D0E
:1006F00092469B4611B1B1FA81F202E0B0FA80F263
:1007000020329046FFF78BFF04460F4640EA0A006E
:1007100041EA0B0153465A46084313D0114653EAA7
:10072000010019D0C8F14002504600F057F80546C4
:100730000E46504659464246FFF771FF084305D022
:10074000012004E020463946BDE8F08D0020054335
:1007500046EAE0762C4337430A986305E40AA0EBA7
:1007600008000022FD0A44EA47540A3002D500205E
:100770000146E9E7010510196941DDE9084500195D
:100780006941BDE8F04DA2E7C1F30A52C1F313017C
:1007900040F2FF3341F480119A4202DA0020014610
:1007A000704740F233439A42A2F2334202DC524293
:1007B00000F014B8FFF733BF064C074D06E0E068C1
:1007C00040F0010394E8070098471034AC42F6D398
:1007D000FFF7DEFCA0200008C0200008202A04DB70
:1007E000203A21FA02F00021704721FA02F3D040AA
:1007F000C2F12002914008431946704700BFFEE74E
:1008000010B50449044800F023F80121024800F023
:1008100039F810BD00802010406002400246094BAC
:100820009A4201D2084801E00648103801F000530E
:100830001BB1064B0B40C36002E0044B0B408360CE
:100840007047000010640240006002407D0F7D0F81
:100850000246094B9A4201D2084801E00648103886
:1008600001F000531BB1064B0B40C36002E0044B88
:100870000B4083607047000010640240006002403B
:100880007D0F7D0F21B1026842F00102026003E09A
:10089000026822F001020260704710B501F0800387
:1008A0004BB122B1436943F08003436103E04369E4
:1008B00023F08003436180290BD02AB1036801F043
:1008C0001E042343036004E0036801F01E04A343F5
:1008D000036010BD10B500220268134B1A40CC68AB
:1008E0000B6823434C6923438C692343CC6923431E
:1008F0000C6A23434C6A23438C6A23434C6B234387
:100900008C6B23431A430260426922F00702D1E94B
:100910000B3423431A4342610B6943604B68836085
:100920008B68C36010BD00003F801CF07047F0B5BD
:100930000A4600210023002400BF3DE0012505FAFE
:1009400001F3156805EA03049C4234D105684F00A1
:100950000326BE40B543056015794E00B5400668D4
:10096000354305601579012D02D01579022D16D178
:1009700085684F000326BE40B543856055794E001B
:10098000B540866835438560456801268E40B5438D
:100990004560456896798E40B6B235434560C56876
:1009A0004F000326BE40B543C560D5794E00B54023
:1009B000C6683543C560491C1029BFD3F0BDF0B5EA
:1009C000002300244D07ED0E02FA05F3CE1000F1CE
:1009D000200555F826504E07F70E0F26BE40B543AA
:1009E000CF1000F1200646F82750CE1000F1200568
:1009F00055F8265045EA0304CE1000F1200545F8CD
:100A00002640F0BD418370470183704700BFFEE779
:100A100000BFFEE77047000070B5002100230F22E1
:100A2000C4781CB3174C246804F4E064C4F5E06493
:100A3000C4F30721C1F10404E3B20A4144789C40A5
:100A4000E1B28478144021430C07210E0E4C057846
:100A50006155047804F01F050124AC4005786D1140
:100A6000AD0005F1E025C5F8004109E0047804F087
:100A70001F050124AC40054D0678761145F8264047
:100A800070BD00000CED00E000E400E080E100E05B
:100A90007047000029B1064A12680243044B1A60ED
:100AA00004E0034A12688243014B1A607047000059
:100AB0003038024029B1064A12680243044B1A60DA
:100AC00004E0034A12688243014B1A607047000039
:100AD00040380240F0B50021002200240225002603
:100AE0000223324F3F6807F00C0121B1042905D0E1
:100AF000082937D105E02E4F076036E02D4F0760FB
:100B000033E02A4F3F1F3F68C7F38056274F3F1FF0
:100B10003F6807F03F036EB1264FB7FBF3F7DFF8EE
:100B20008CC0ACF1040CDCF800C0CCF3881C07FBD3
:100B30000CF40CE01E4FB7FBF3F7DFF870C0ACF11C
:100B4000040CDCF800C0CCF3881C07FB0CF4174F36
:100B50003F1F3F68C7F301477F1C7D00B4FBF5F7DB
:100B6000076002E0124F076000BF00BF0F4F3F68F1
:100B700007F0F0010909104F7A5C0768D740476019
:100B80000A4F3F6807F4E051890A0B4F7A5C4768C7
:100B9000D7408760054F3F6807F46041490B064F17
:100BA0007A5C4768D740C760F0BD00000838024053
:100BB0000024F40000127A000400002070470000B6
:100BC0000CB50020019000903448006840F480305B
:100BD0003249086000BF3148006800F400300090DE
:100BE0000198401C0190009818B90198B0F5A04FE9
:100BF000F1D12A48006800F4003010B101200090C3
:100C000001E0002000900098012846D123484030A0
:100C1000006840F080502149403108602048006859
:100C200040F440401E4908601C48083000681B49D9
:100C3000083108600846006840F400400860084633
:100C4000006840F4A05008601648091F0860081F9B
:100C5000006840F08070091F086000BF0F480068FE
:100C600000F000700028F9D040F205700E490860CD
:100C70000A480830006820F003000849083108607D
:100C80000846006840F00200086000BF03480830D2
:100C9000006800F00C000828F8D10CBD00380240B4
:100CA0000070004008544007003C024070470000BC
:100CB00010B51548006840F47000134908601348E7
:100CC000006840F001001149086000200F49083118
:100CD00008600E4800680E4908400C4908600D483D
:100CE000091D0860081F006820F48020091F0860A3
:100CF000002006490C310860FFF762FF4FF00060EA
:100D000001498039086010BD88ED00E000380240DC
:100D1000FFFFF6FE1030002410B50121024800F05C
:100D200011F800F0FBFE10BD0008004010B50121D5
:100D3000034800F007F8012001F0DAF810BD0000C8
:100D4000000C0040CA430282704721B1028842F081
:100D50000102028004E002884FF6FE731A4002800E
:100D60007047F0B50C4615461E46002100220023B0
:100D70000189028B038C4FF6F877394021434FF6F7
:100D8000FC473A4040F201173A434FF6DD773B40CB
:100D90004FF6FF7707EA06172F433B430181028393
:100DA0000384F0BD0146486A70471AB183890B433A
:100DB000838102E083898B438381704770B500246F
:100DC00000220023058C4FF6FE7635400584028C08
:100DD0008388048B4FF68F752C40B51E2C400D88F0
:100DE0002C43751E2A408D892A434D882A43104D75
:100DF000A84202D00F4DA84213D14FF6F7752A40F2
:100E0000CD892A434FF6FB752A408D882A434FF639
:100E1000FF652B404FF6FF552B400D8A2B434D8A23
:100E20002B43838004838D684563028470BD00007A
:100E30000000014000040140416270470022028826
:100E4000184B98420ED0184B98420BD0B0F1804FFF
:100E500008D0164B984205D0154B984202D0154B3E
:100E6000984204D14FF68F731A404B881A43124BA5
:100E7000984207D0114B984204D04FF6FF431A40D6
:100E80000B891A4302804B68C3620B880385054BAC
:100E9000984202D0044B984201D18B7A03860123F9
:100EA00083827047000001400004014000040040BC
:100EB00000080040000C00400010004000140040FA
:100EC00021B1828942F40052828104E082894DF688
:100ED000FF731A40828170471AB1838A0B43838261
:100EE00002E0838A8B438382704700002DE9FF472D
:100EF00005460E460024A14600BFA046B08900B1B9
:100F000000BF2C8A24F44054F08804432C82AC891E
:100F100041F20C608443B0883189084371890843E9
:100F20000443AC81AC8A24F44074B0890443AC829D
:100F30006846FFF7CFFD2048854202D01F48854212
:100F400002D1DDF80C9001E0DDF80890A88900F4EA
:100F5000004040B109EBC90000EB091031684900BD
:100F6000B0FBF1F707E009EBC90000EB09103168AD
:100F70008900B0FBF1F76420B7FBF0F00401200911
:100F8000642101FB1078A88900F4004040B13220B0
:100F900000EBC800B0FBF1F000F00700044308E0EC
:100FA000322000EB08106421B0FBF1F000F00F00DC
:100FB00004432C81BDE8FF8700100140001401406C
:100FC00000BFFEE70FB4084B10B504A902AA0398AE
:100FD00000F0DEF8044602A9002000F070FC204674
:100FE00010BC5DF814FB0000BF18000802E008C840
:100FF000121F08C1002AFAD170477047002001E093
:1010000001C1121F002AFBD1704700002DE9FF5FCC
:1010100082B00021DDE90430020DDDF840B0034369
:1010200018D044F61050A2F2FF3242431514119822
:1010300001281FD0A5EB0B00401C5FEA000A4FF00F
:1010400000064E4FDFF83891B046504615D5CAF12C
:10105000000413E0119801244AA3012801D16FEA8A
:101060000B010298119AC0E90031C0E9024206B0B2
:10107000BDE8F09FCBF10000DFE704460021404AC5
:10108000491842EB0450CDE9001012E0E00707D008
:1010900032463B4640464946FFF740F9804689467E
:1010A00032463B4610461946FFF738F906460F46CA
:1010B0006410002CEAD1DDE90401DDE90023BAF176
:1010C000000F06DAFFF72AF942464B46FFF726F9EA
:1010D00005E0FFF795F942464B46FFF791F90446C4
:1010E0000E460022284BFFF71FFA03D84FF0FF30BF
:1010F000014607E00022254B20463146FFF767F8FE
:10110000FFF742FB102409E0002C0ADB0A2200232F
:10111000FFF754FA039B30321A55641E50EA01025D
:10112000F2D1641C039AC4F111031444119A012AE8
:1011300003D0012208430DD10AE0084304D0002067
:101140004FF0110B119072E7A3EB0B056D1E0DE034
:101150005B4504DD4FF0000205F1010504E003DA10
:101160004FF00002A5F10105002AECD00298119978
:10117000C0E90231C0E9004579E7000000001440F1
:101180000000F03F300000000000F0430000E03FAE
:101190002DE9FF4F95B09B468946064600250FE294
:1011A000252877D100242746F84A0121059400E03C
:1011B000044316F8013F203B01FA03F01042F7D137
:1011C00030782A2811D06FF02F033078A0F1300248
:1011D000092A16D8059A44F0020402EB820203EBB6
:1011E00042021044761C0590EFE759F8042B059253
:1011F000002A03DA504244F40054059044F00204FB
:10120000761C30782E2816D116F8010F44F004040D
:101210002A280DD06FF02F023078A0F13003092B6F
:1012200009D807EB870302EB4303C718761CF3E7E3
:1012300059F8047B761C30786C280FD006DC4C28DB
:1012400017D068280DD06A2814D104E0742810D073
:101250007A280FD10DE044F400140AE044F480141D
:1012600001E044F440147278824202D104F5801403
:10127000761C761C307866280BD013DC582877D083
:1012800009DC002875D04528F6D04628F4D0472838
:101290001AD19DE118E0632835D0642879D06528FB
:1012A00012D195E1702873D008DC6728F1D0692845
:1012B0006FD06E280DD06F2806D1B5E073282CD0E2
:1012C000752875D0782874D05A46179990476D1CA8
:1012D00075E1C4F30250022809D003280DD0D9F8D3
:1012E000001004280DD00D6009F1040967E1D9F858
:1012F0000010EA17C1E90052F6E7D9F800100D8096
:10130000F2E70D70F0E719F8041B8DF800100020CB
:101310008DF80100EA46012003E059F804AB4FF0D4
:10132000FF3061074FF0000102D40DE008F1010128
:101330008846B9420FDA8045F8DB1AF80810002910
:10134000F4D108E008F1010188468142FADB1AF87D
:1013500008100029F6D105985B46A0EB0807214646
:101360003846179A00F094FA284400EB080507E085
:101370004DE029E10DE01AF8010B5A461799904704
:10138000B8F10108F7D25B4621463846179A13E1B7
:1013900042E00A220092C4F302524FF0000A022AED
:1013A00008D059F804CB032A4FEAEC710AD00DE0BB
:1013B00029E02AE009F1070121F00702F2E802C161
:1013C000914609E00FFA8CFC4FEAEC71042A03D134
:1013D0004FFA8CFC4FEAEC71002907DA0A4600212B
:1013E000DCF1000C61EB02012D2202E0220504D5A4
:1013F0002B228DF80420012203E0E20701D02022F5
:10140000F7E7904659E00A2102E010220DE0102192
:101410004FF0000A00910BE010224FF0000A44F058
:1014200004040827009203E008224FF0000A00920B
:10143000C4F30252022A05D059F804CB0021032A32
:1014400008D009E009F1070121F00702F2E802C122
:10145000914605E01FFA8CFC042A01D10CF0FF0C28
:101460004FF00008220728D5702806D0009B83F093
:10147000100353EA0A0305D00EE040228DF8042041
:10148000012208E05CEA010206D030228DF8042037
:101490008DF8050002229046009B83F0080353EA72
:1014A0000A030AD15CEA010201D1620705D53022A4
:1014B0008DF804204FF001087F1E582804D034A076
:1014C00003900EA802900DE036A0F9E7534660465F
:1014D000009AFFF773F884460398825C0298401ED6
:1014E000029002705CEA0100F0D1029806A9081A85
:1014F00000F1200A600702D524F4803400E00127BF
:10150000574502DDA7EB0A0000E0002000EB0A01CE
:10151000009005984144401A0590E00306D45B46CC
:101520002146179A059800F0B3F90544002706E014
:1015300001A85A46C05D179990476D1C7F1C47450E
:10154000F6DBE0030CD55B462146179A059800F0C0
:101550009FF9054404E030205A46179990476D1CC6
:101560000099481E00900029F5DC08E002980299D5
:101570005A460078491C0291179990476D1CBAF1A0
:101580000001AAF1010AF1DC65E10000092801006F
:1015900030313233343536373839616263646566E9
:1015A00000000000303132333435363738394142AB
:1015B000434445460000000000F058F90544761CFD
:1015C000307800287FF4ECAD19B02846BDE8F08FE4
:1015D000620700D4062709F1070222F0070CFCE895
:1015E0000223E14603F000485FEA080C02D00FF244
:1015F000702C0DE05FEA045C02D50FF2682C07E066
:101600005FEAC47C02D00FF2602C01E0AFF2700CF4
:101610004FF0FF3823F00043CDF850C065280CD0C0
:1016200006DC452809D046281DD047283DD13DE09D
:10163000662818D067287ED138E00021112F01DB01
:10164000112000E0781CCDE9000106A90EA8FFF7E3
:10165000DDFCDDE90F010E9A03910021009207F1F4
:10166000010A04914DE04FF000400097CDE90110D0
:1016700006A90EA8FFF7CAFCDDE90F0203920E9B34
:1016800011990022DDF80CA00093049211B9791C85
:1016900000EB010AB7EB0A0004D4C0F1FF3007F1F8
:1016A000010A0490AAEB0700019044E0012F00DA40
:1016B00001270021112F01DD112000E03846CDE97E
:1016C000000106A90EA8FFF7A1FCDDE90F010E9AA3
:1016D0000391002104910092BA4621070CD403998A
:1016E000514500DA8A46BAF1010F05DD009AAAF1E8
:1016F0000101515C302908D0B84202DA10F1040F20
:1017000006DA0121CDE9011015E0AAF10101E9E7AE
:10171000002805DC049901440491AAEB000102E0D1
:10172000411C514500DD8A460499401A401C019035
:101730004FF000400290200704D40198504501DB8F
:10174000CDF8048000208DF84F0002980DF14F076E
:10175000B0F1004F25D02B200E9002984FF00208D8
:1017600000280CDA404202902D200E9007E00A215A
:101770000298FEF70DFF3031029007F8011DB8F115
:101780000001A8F10108F2DC02980028EFD1791ECF
:101790000E980870307800F0200040F0450007F8FF
:1017A000020D12A8C01B00F107081498007800B1C0
:1017B000012000EB0A01019801EBE071059841441A
:1017C000401A401E0590E00306D45B462146179A56
:1017D000059800F05DF805441498007818B15A4651
:1017E000179990476D1CE00324D55B462146179A54
:1017F000059800F04DF805441CE00498002807DB2C
:10180000DDE90301884203DD0098405C179901E09F
:10181000179930205A469047049805F10105401C5D
:1018200004900198401E019004D12E205A46179929
:1018300090476D1CBAF10001AAF1010ADDDC05E058
:1018400017F8010B5A46179990476D1CB8F1000123
:10185000A8F10108F4DC5B462146179A0598ABE62F
:101860002D0000002B000000200000002DE9F041B9
:10187000044600251E461746880404D405E0394670
:101880002020B0476D1C641EF9D52846BDE8F081C4
:101890002DE9F041044600251E469046C80301D5B7
:1018A000302700E02027880404D505E0414638466B
:1018B000B0476D1C641EF9D52846BDE8F0810A6862
:1018C000531C0B601070704710B52DED108BF0EEAF
:1018D000408AB0EE609A38EEC90A424880ED000AAC
:1018E00090ED000A4048D0ED000A30EE200A10EEDC
:1018F000101A0846FEF704FE41EC1E0B9FED3B0B51
:1019000053EC102BFEF70AFD41EC1D0B9FED390B3C
:1019100053EC102BFEF774FD41EC1B0B37480068AD
:10192000FEF7EEFD41EC1C0B53EC1B2BFEF74FFCBE
:1019300041EC1A0BFEF710FE09EE900A294890EDD3
:10194000000A2948D0ED000A30EE600A10EE101AA5
:101950000846FEF7D5FD41EC1B0B9FED240B53EC25
:10196000102BFEF74DFD41EC1A0BFEF7F5FD0FEEC7
:10197000100A234890ED000A1A48D0ED000A20EE24
:10198000200A2048D0ED000A00EEA90A1E48D0ED3A
:10199000000A00EE8F0AB0EE408A124890ED000A6D
:1019A000114880ED000A1548C0ED009A9FED170A16
:1019B000B4EEC08AF1EE10FA03D29FED140AB0EE35
:1019C000408A9FED130AB4EEC08AF1EE10FA03DDEF
:1019D0009FED0F0AB0EE408AB0EE480ABDEC108BC6
:1019E00010BD0000380000203C0000209A99999911
:1019F0009999B93F0000000000000040400000201D
:101A00002C00002030000020340000200000C8C25C
:101A10000000C842014890ED010A704764000020B0
:101A200001480068704700001400002010B500F065
:101A300029F80146FFF7F4FF4FF4803202FB001053
:101A400010BD0000014890F90000704764000020BC
:101A500000F07EF900F0A4F900F020F94FF41650E0
:101A600000F04EFA00F070F808E0FFF7DFFF0449DD
:101A7000086000F00FF808B100F080F8F5E700000A
:101A80000000002010B50248FFF78CF910BD0000DF
:101A90000008004001480078704700004400002022
:101AA0009FED050A054880ED000A9FED030A0448F2
:101AB00080ED000A70470000000000003C0000209C
:101AC0004000002010B51348007840B21249087059
:101AD000002007E00F4A411C515C4AB20E4B011D29
:101AE0005A54401C1028F5DB0B48D0ED020AB0EE2A
:101AF000600A00F0B7F90848D0ED040AB0EE600AB9
:101B000000F0AAF90448D0ED030AB0EE600A00F034
:101B10009DF910BD500000206400002010B5084859
:101B2000FFF740F9142805D806480068401C05490D
:101B3000086004E003480068401E0249086010BDC8
:101B400000080040140000201CB501210820FEF709
:101B5000A1FF01208DF804008DF80600C00200905E
:101B600001208DF8070002208DF805006946024823
:101B7000FEF7DDFE1CBD0000000C024010B52DED8F
:101B8000048BFFF75FFF3B490978884205D0FFF7D8
:101B900087FFFFF74BFF38490860FFF753FFE0B1BD
:101BA000FFF744FF00EE100AB8EEC00AF0EE408ADC
:101BB000FFF730FFB0EE409AF0EE680AFFF784FEC0
:101BC000B0EE408A00F05AF9FFF730FF0446224693
:101BD0002AA12B48FFF7F6F92EE0FFF727FF264949
:101BE0000968441A2046FEF77AFC41EC190B9FED78
:101BF000250B53EC102BFEF703FC41EC180BFEF702
:101C0000ABFC22490860FFF705FFF0EE408A1F4851
:101C1000D0ED000AFFF758FEB0EE408A00F02EF932
:101C20001A480068FEF76CFC41EC180B53EC182BBB
:101C300017A11348FFF7C6F916491748FEF7EEFD3E
:101C40000F48FEF7BDFA1449703948670121124860
:101C5000FEF718FEFFF736FFFFF7F4FE05490870A0
:101C6000FFF7E4FE04490860002000F0E9F8BDEC4D
:101C7000048B10BD450000204C00002025640A00A4
:101C80001C0000209A9999999999B93F4800002021
:101C900025660A00200000207060024000B587B071
:101CA00001210820FEF7F6FE02208DF818004FF4FF
:101CB0004050059001208DF81B0003208DF819007D
:101CC00005A92148FEF733FE02220C211E48FEF72B
:101CD00076FE02220D211C48FEF771FE0121042030
:101CE000FEF7E8FE0020ADF81000ADF80A004FF650
:101CF000FF7003900020ADF8080002A91348FFF719
:101D00009DF800211148FFF797F8012211460F486E
:101D1000FFF74BF800231A4601210C48FFF721F882
:101D20001E208DF8040001208DF805008DF80600B6
:101D30008DF8070001A8FEF76FFE01210348FFF7A9
:101D400004F807B000BD0000000C0240000800408D
:101D50000EB501210820FEF7ADFE0020ADF8080009
:101D6000ADF8020042F2D000019040F2E730ADF849
:101D7000000069460948FFF761F800210748FFF7AE
:101D80005BF8012211460548FFF70FF800F07CF9D7
:101D900001210248FEF7D9FF0EBD0000000C0040F3
:101DA00000B58BB001210420FEF774FE02208DF8EF
:101DB000280000208DF82A004020099000208DF88E
:101DC0002B008DF8290009A91B48FEF7B0FD02225F
:101DD00006211948FEF7F3FD01210220FEF76AFEF5
:101DE0000020ADF82000ADF81A0041F2670007901E
:101DF0000020ADF8180006A91048FFF71FF80020D2
:101E0000ADF814006020ADF804004FF48070ADF818
:101E100014000020ADF810000120ADF8060040F6D7
:101E20007360039001A90548FEF7C8FF012103482C
:101E3000FEF78BFF0BB000BD00080240000400401D
:101E4000014908707047000044000020014880EDFF
:101E5000000A704734000020014880ED000A7047F6
:101E600030000020014880ED000A70472C0000205F
:101E700001490860704700003404004010B52DEDA2
:101E8000028BB0EE408AB5EEC08AF1EE10FA05DDA5
:101E90004FF400611348FEF7B5FD0FE0B5EEC08AC0
:101EA000F1EE10FA0AD24FF400610E48FEF7ACFDD5
:101EB0009FED0D0A38EE000AB0EE408A9FED0B0A46
:101EC00028EE000ADFED080A80EE201ABCEEC10AF7
:101ED00010EE100A82B21046FFF7CAFFBDEC028B6B
:101EE00010BD0000000C02400000C84200388345CD
:101EF000024909780143014A1170704744000020EB
:101F000010B596B0044601210846FEF7C3FD012135
:101F1000C804FEF7CFFD01214805FEF7BBFD0822EE
:101F200000215448FEF74BFD082201215148FEF7DD
:101F300046FD0120149002208DF8540000208DF8F9
:101F4000560001208DF8570002208DF8550014A985
:101F50004848FEF7ECFC022014908DF8540014A9B8
:101F60004448FEF7E4FC10940020ADF84400ADF8BE
:101F70004600ADF84800ADF84C000C20ADF84A0022
:101F800010A93D48FEF7B2FF01213B48FEF798FF3C
:101F9000012280213848FEF79FFF4FF0006001903A
:101FA0003548001D029035480390402004900620DB
:101FB0000590002006904FF4806007900020089064
:101FC00009900A904FF400300B9000200C900120F3
:101FD0000D9000200E900F9001A92948FEF77AFC81
:101FE00001212748FEF74EFC012240212248FEF73E
:101FF00073FF4FF0006001901F48001D02902148C0
:1020000003900020049011200590002006904FF4CA
:10201000806007900020089009904FF480700A902B
:1020200040020B9000200C9001200D9000200E909B
:102030000F9001A912483038FEF74CFC01211048DE
:102040003038FEF71FFC0D208DF8000000208DF8C1
:1020500001008DF8020001208DF803006846FEF7AC
:10206000DBFC0122102106483038FEF716FC16B0C2
:1020700010BD000000000240004C00401C00002089
:10208000706002405000002008B532208DF800003A
:1020900001208DF803006846FEF7BEFC08BD000075
:1020A000C02000080000002050000000EC0F0008D5
:1020B000102100085000002040040000FC0F000820
:1020C00000000000000000000102030401020304FC
:1020D00006070809FFFFFFFF00000000610203047C
:1020E0000506000000000000000000006F12833AA7
:1020F00000000000000000000000000000000000E0
:1021000000000000000000000000000000000000CF
:040000050800019D51
:00000001FF
