:020000040800F2
:10000000080400209D010008370300082F030008A2
:1000100033030008E50100080D0600080000000099
:100020000000000000000000000000007D03000848
:100030004F02000800000000390300086D040008AA
:10004000B7010008B7010008B7010008B7010008B0
:10005000B7010008B7010008B7010008B7010008A0
:10006000B7010008B7010008B7010008B701000890
:10007000B7010008E9010008B7010008B70100084E
:10008000B7010008B7010008B7010008B701000870
:10009000B7010008B7010008B7010008B701000860
:1000A000B7010008B7010008B7010008B701000850
:1000B000B7010008B7010008B7010008B701000840
:1000C000B7010008B7010008B7010008B701000830
:1000D000B7010008B7010008B7010008B701000820
:1000E000B7010008B7010008B7010008B701000810
:1000F000B7010008B7010008B7010008B701000800
:10010000B7010008B7010008D9040008B7010008CA
:10011000B7010008B7010008B7010008B7010008DF
:10012000B7010008B7010008B7010008B7010008CF
:10013000B7010008B7010008B7010008B7010008BF
:10014000B7010008B7010008B7010008B7010008AF
:10015000B7010008B7010008B7010008B70100089F
:10016000B7010008B7010008B7010008B70100088F
:10017000B7010008B7010008B7010008B70100087F
:10018000B7010008B7010008DFF80CD000F018F83C
:100190000048004731060008080400200648804750
:1001A00006480047FEE7FEE7FEE7FEE7FEE7FEE75C
:1001B000FEE7FEE7FEE7FEE771040008890100089C
:1001C000064C074D06E0E06840F0010394E80700A4
:1001D00098471034AC42F6D3FFF7DAFF68070008FF
:1001E0008807000800BFFEE710B50449044800F086
:1001F00009F80121024800F01FF810BD008020100E
:10020000406002400246094B9A4201D2084801E090
:100210000648103801F000531BB1064B0B40C36079
:1002200002E0044B0B408360704700001064024002
:10023000006002407D0F7D0F21B1026842F0010293
:10024000026003E0026822F001020260704770471A
:10025000F0B50A4600210023002400BF3DE001253F
:1002600005FA01F3156805EA03049C4234D10568D8
:100270004F000326BE40B543056015794E00B540DA
:100280000668354305601579012D02D01579022DD8
:1002900016D185684F000326BE40B5438560557969
:1002A0004E00B540866835438560456801268E401E
:1002B000B5434560456896798E40B6B23543456092
:1002C000C5684F000326BE40B543C560D5794E00D2
:1002D000B540C6683543C560491C1029BFD3F0BD81
:1002E000F0B5002300244D07ED0E02FA05F3CE1001
:1002F00000F1200555F826504E07F70E0F26BE4098
:10030000B543CF1000F1200646F82750CE1000F17B
:10031000200555F8265045EA0304CE1000F12005CB
:1003200045F82640F0BD418370470183704700BF08
:10033000FEE700BFFEE770477047000029B1064A9C
:1003400012680243044B1A6004E0034A12688243B5
:10035000014B1A60704700003038024029B1064A4C
:1003600012680243044B1A6004E0034A1268824395
:10037000014B1A607047000040380240704700008F
:100380000CB50020019000903448006840F48030A3
:100390003249086000BF3148006800F40030009026
:1003A0000198401C0190009818B90198B0F5A04F31
:1003B000F1D12A48006800F4003010B1012000900B
:1003C00001E0002000900098012846D123484030E9
:1003D000006840F0805021494031086020480068A2
:1003E00040F440401E4908601C48083000681B4922
:1003F000083108600846006840F40040086008467C
:10040000006840F4A05008601648091F0860081FE3
:10041000006840F08070091F086000BF0F48006846
:1004200000F000700028F9D040F205700E49086015
:100430000A480830006820F00300084908310860C5
:100440000846006840F00200086000BF034808301A
:10045000006800F00C000828F8D10CBD00380240FC
:100460000070004008544007003C02407047000004
:1004700010B51548006840F470001349086013482F
:10048000006840F001001149086000200F49083160
:1004900008600E4800680E4908400C4908600D4885
:1004A000091D0860081F006820F48020091F0860EB
:1004B000002006490C310860FFF762FF4FF0006032
:1004C00001498039086010BD88ED00E00038024025
:1004D000FFFFF6FE1030002410B50121024800F0A5
:1004E00005F800F025F910BD000C0040CA43028257
:1004F000704721B1028842F00102028004E00288C4
:100500004FF6FE731A4002807047000070B5002459
:1005100000220023058C4FF6FE7635400584028CC0
:100520008388048B4FF68F752C40B51E2C400D88A8
:100530002C43751E2A408D892A434D882A43104D2D
:10054000A84202D00F4DA84213D14FF6F7752A40AA
:10055000CD892A434FF6FB752A408D882A434FF6F2
:10056000FF652B404FF6FF552B400D8A2B434D8ADC
:100570002B43838004838D684563028470BD000033
:10058000000001400004014000220288184B9842FC
:100590000ED0184B98420BD0B0F1804F08D0164BBC
:1005A000984205D0154B984202D0154B984204D181
:1005B0004FF68F731A404B881A43124B984207D05C
:1005C000114B984204D04FF6FF431A400B891A434F
:1005D00002804B68C3620B880385054B984202D0AA
:1005E000044B984201D18B7A0386012383827047A2
:1005F00000000140000401400004004000080040E9
:10060000000C0040001000400014004000BFFEE756
:1006100002E008C8121F08C1002AFAD170477047CB
:10062000002001E001C1121F002AFBD17047000029
:1006300000F008F89FED020A00F05CF800BFFEE74A
:10064000CDCCBC4100B58BB001210420FFF776FE74
:1006500002208DF8280000208DF82A004020099003
:1006600001208DF82B0002208DF8290009A91C48D3
:10067000FFF7EEFD022206211948FFF731FE0121A6
:100680000220FFF76BFE0020ADF82000ADF81A0045
:1006900041F2670007900020ADF8180006A9114844
:1006A000FFF772FF0020ADF814006020ADF80400E1
:1006B0004FF48070ADF814000020ADF81000012058
:1006C000ADF8060040F63300039001A90548FFF796
:1006D0001DFF01210348FFF70CFF0BB000BD000018
:1006E0000008024000040040014908607047000013
:1006F0003404004000B5DFED080A60EE200A9FEDEB
:10070000071AC0EE811AFCEEE10A10EE900A82B2DE
:100710001046FFF7E9FF00BD003883450000C842DE
:10072000024909780143014A117070470100002015
:1007300010B50B48007838B90120094908708103C9
:100740000848FFF7F2FD07E00020054908704FF464
:1007500080410448FFF7E7FD0120FFF7E1FF10BDEE
:1007600000000020000C0240880700080000002064
:1007700004000000100600088C0700080400002098
:0C07800004040000200600080000000037
:040000050800019D51
:00000001FF
