:020000040800F2
:10000000080400209D010008370300082F030008A2
:1000100033030008E50100087D0600080000000029
:10002000000000000000000000000000F5030008D0
:100030004F02000800000000B1030008E5040008BA
:10004000B7010008B7010008B7010008B7010008B0
:10005000B7010008B7010008B7010008B7010008A0
:10006000B7010008B7010008B7010008B701000890
:10007000B7010008E9010008B7010008B70100084E
:10008000B7010008B7010008B7010008B701000870
:10009000B7010008B7010008B7010008B701000860
:1000A000B7010008B7010008B7010008B701000850
:1000B000B7010008B701000851050008B7010008A2
:1000C000B7010008B7010008B7010008B701000830
:1000D000B7010008B7010008B7010008B701000820
:1000E000B7010008B7010008B7010008B701000810
:1000F000B7010008B7010008B7010008B701000800
:10010000B7010008B701000865050008B70100083D
:10011000B7010008B7010008B7010008B7010008DF
:10012000B7010008B7010008B7010008B7010008CF
:10013000B7010008B7010008B7010008B7010008BF
:10014000B7010008B7010008B7010008B7010008AF
:10015000B7010008B7010008B7010008B70100089F
:10016000B7010008B7010008B7010008B70100088F
:10017000B7010008B7010008B7010008B70100087F
:10018000B7010008B7010008DFF80CD000F018F83C
:1001900000480047C50600080804002006488047BC
:1001A00006480047FEE7FEE7FEE7FEE7FEE7FEE75C
:1001B000FEE7FEE7FEE7FEE7E90400088901000824
:1001C000064C074D06E0E06840F0010394E80700A4
:1001D00098471034AC42F6D3FFF7DAFFDC0700088B
:1001E000FC07000800BFFEE710B50449044800F012
:1001F00009F80121024800F01FF810BD008020100E
:10020000406002400246094B9A4201D2084801E090
:100210000648103801F000531BB1064B0B40C36079
:1002200002E0044B0B408360704700001064024002
:10023000006002407D0F7D0F21B1026842F0010293
:10024000026003E0026822F001020260704770471A
:10025000F0B50A4600210023002400BF3DE001253F
:1002600005FA01F3156805EA03049C4234D10568D8
:100270004F000326BE40B543056015794E00B540DA
:100280000668354305601579012D02D01579022DD8
:1002900016D185684F000326BE40B5438560557969
:1002A0004E00B540866835438560456801268E401E
:1002B000B5434560456896798E40B6B23543456092
:1002C000C5684F000326BE40B543C560D5794E00D2
:1002D000B540C6683543C560491C1029BFD3F0BD81
:1002E000F0B5002300244D07ED0E02FA05F3CE1001
:1002F00000F1200555F826504E07F70E0F26BE4098
:10030000B543CF1000F1200646F82750CE1000F17B
:10031000200555F8265045EA0304CE1000F12005CB
:1003200045F82640F0BD42694A404261704700BF2F
:10033000FEE700BFFEE7704770B5002100230F22E3
:10034000C4781CB3174C246804F4E064C4F5E0647A
:10035000C4F30721C1F10404E3B20A4144789C408C
:10036000E1B28478144021430C07210E0E4C05782D
:100370006155047804F01F050124AC4005786D1127
:10038000AD0005F1E025C5F8004109E0047804F06E
:100390001F050124AC40054D0678761145F826402E
:1003A00070BD00000CED00E000E400E080E100E042
:1003B0007047000029B1064A12680243044B1A60D4
:1003C00004E0034A12688243014B1A607047000040
:1003D0003038024029B1064A12680243044B1A60C1
:1003E00004E0034A12688243014B1A607047000020
:1003F00040380240704700000CB50020019000908A
:100400003448006840F480303249086000BF314809
:10041000006800F4003000900198401C01900098A2
:1004200018B90198B0F5A04FF1D12A48006800F43E
:10043000003010B10120009001E0002000900098F1
:10044000012846D123484030006840F080502149BF
:10045000403108602048006840F440401E49086070
:100460001C48083000681B490831086008460068CD
:1004700040F4004008600846006840F4A05008605E
:100480001648091F0860081F006840F08070091FA7
:10049000086000BF0F48006800F000700028F9D025
:1004A00040F205700E4908600A480830006820F0E4
:1004B00003000849083108600846006840F002005F
:1004C000086000BF03480830006800F00C000828EE
:1004D000F8D10CBD003802400070004008544007BD
:1004E000003C02407047000010B51548006840F419
:1004F0007000134908601348006840F0010011497A
:10050000086000200F49083108600E4800680E4955
:1005100008400C4908600D48091D0860081F006864
:1005200020F48020091F0860002006490C31086073
:10053000FFF762FF4FF0006001498039086010BD8D
:1005400088ED00E000380240FFFFF6FE1030002486
:1005500010B50121024800F011F800F0CFF810BDED
:100560000008004010B50121034800F007F84FF4DF
:10057000805000F0B9F810BD000C0040CA43028260
:10058000704721B1028842F00102028004E0028833
:100590004FF6FE731A4002807047F0B50C461546C0
:1005A0001E460021002200230189028B038C4FF696
:1005B000F877394021434FF6FC473A4040F20117A3
:1005C0003A434FF6DD773B404FF6FF7707EA0617D1
:1005D0002F433B43018102830384F0BD0146486AF7
:1005E00070471AB183890B43838102E083898B436F
:1005F000838170474162704700220288184B9842FD
:100600000ED0184B98420BD0B0F1804F08D0164B4B
:10061000984205D0154B984202D0154B984204D110
:100620004FF68F731A404B881A43124B984207D0EB
:10063000114B984204D04FF6FF431A400B891A43DE
:1006400002804B68C3620B880385054B984202D039
:10065000044B984201D18B7A038601238382704731
:100660000000014000040140000400400008004078
:10067000000C0040001000400014004000BFFEE7E6
:1006800002E008C8121F08C1002AFAD1704770475B
:10069000002001E001C1121F002AFBD170470000B9
:1006A00001480068704700000400002010B500F009
:1006B00013F80146FFF7F4FF4FF4803202FB0010FD
:1006C00010BD000000F030F803E0FFF7EFFF014934
:1006D0000860FAE70000002010B50248FFF77EFF2F
:1006E00010BD00000008004010B504462146024835
:1006F000FFF719FE10BD0000000C024010B50848BD
:10070000FFF76CFF142805D806480068401C05490F
:10071000086004E003480068401E0249086010BDFC
:10072000000800400400002000B587B00121082027
:10073000FFF740FE02208DF818004FF4405005905E
:1007400001208DF81B0003208DF8190005A9214810
:10075000FFF77EFD02220C211E48FFF7C1FD022299
:100760000D211C48FFF7BCFD01210420FFF732FEDC
:100770000020ADF81000ADF80A004FF6FF700390AE
:100780000020ADF8080002A91348FFF735FF00214B
:100790001148FFF72FFF012211460F48FFF721FFF5
:1007A00000231A4601210C48FFF7F7FE1E208DF8A2
:1007B000040001208DF805008DF806008DF8070073
:1007C00001A8FFF7B9FD01210348FFF7DAFE07B0E2
:1007D00000BD0000000C024000080040FC070008BB
:1007E000000000200800000080060008040800083F
:1007F000080000200004000090060008000000002F
:04080000FFFFFFFFF8
:040000050800019D51
:00000001FF
